:0400000034EF0AF0DF
:08000800046ED8CF05F0E0CF33
:1000100006F00001E9CF0CF0EACF07F0E1CF08F0DD
:10002000E2CF09F0D9CF0AF0DACF0BF0F3CF12F01C
:10003000F4CF13F0FACF14F0F5CF15F0F6CF16F099
:10004000F7CF17F000C00EF001C00FF002C010F0A3
:1000500003C011F0F2A830EF00F0F2B267EF00F049
:10006000F0A636EF00F0F0B091EF00F00EC000F017
:100070000FC001F010C002F011C003F00CC0E9FF86
:1000800007C0EAFF078E08C0E1FF09C0E2FF0AC00F
:10009000D9FF0BC0DAFF12C0F3FF13C0F4FF14C086
:1000A000FAFF15C0F5FF16C0F6FF17C0F7FF0450A2
:1000B00006C0E0FF05C0D8FF1000F76ACA0FF66E51
:1000C000000EF7220900F5501200280C0106010E5F
:1000D000325CFB0F11E2050F7FEF00F02CC030F017
:1000E0000BD02CC031F008D02CC033F005D02CC080
:1000F00034F002D035C036F0F29236EF00F0E8244A
:10010000F76AF736190FF66E010EF7220A00F5505E
:10011000FA6E0800F550F96EDC00E200E800EE002F
:10012000F400322A3250090801E2326AF09036EFC8
:1001300000F00D0A0D0A4343532043414E20455819
:10014000414D504C450D0A000D0A52756E6E696E98
:10015000672E2E2E00000D0A207374617465206FC7
:100160006E2069326320736C6176653A20253032E7
:1001700078000D0A20696E636F6D696E6720667284
:100180006F6D206D6173746572206932633A20254A
:100190003032780020202020202000002020202045
:1001A000000020202020202000002020202000000F
:1001B00020202000536574204C2020202020202067
:1001C000202020200000202020202020000041317D
:1001D0003A255500202020202020202000005365B3
:1001E00074204820202020202020202020200000D3
:1001F000202020202020000041303A2555002020DA
:100200002020200020204D616E75616C20426C6FB3
:100210007720312000002020200041303A25550071
:100220002020202020004D313A25750020204D61EE
:100230006E75616C20426C6F7720322000002020A8
:10024000200041303A2555002020202020004D324A
:100250003A25750053657420426C6F777320202017
:10026000202020200000202020004E6F423A2555FB
:100270000000202020004E6F425365743A2555003F
:1002800020202020200020202020000020202020CE
:100290000000202020202020424D4500202020204A
:1002A000200053485420543A25332E316600202034
:1002B000200020202020200053485420483A253395
:1002C0002E316600524820202000202020002020CF
:1002D00020202020202000004D415820543A253372
:1002E0002E316600202020202020202020202020C9
:1002F000202020200000202020202020202020005E
:1003000052534320503A25332E31660020202020BE
:10031000202020202020202020202020000050729B
:10032000657373757265205253432049443A3231E4
:10033000203D20256620000054656D706572617453
:1003400075726520424D453238302049443A323387
:10035000203D20256620000050726573737572651C
:1003600020424D453238302049443A3233203D2036
:100370002566200048756D696469747920424D4591
:100380003238302049443A3235203D20256620005D
:1003900054656D7065726174757265205348545F61
:1003A00037352049443A3237203D20256620000069
:1003B0005072657373757265205348543735204900
:1003C000443A3237203D20256620000054656D7088
:1003D00065726174757265204D4158333138353519
:1003E0002049443A3239203D2025662000000D0A7C
:1003F000474F543A20425546463D25552049443DF5
:10040000254C55204C454E3D2555204F56463D2503
:100410005520000046494C543D2555205254523D2C
:100420002555204558543D255520494E563D2555C6
:1004300000000D0A2020202044415441203D20008E
:100440000D0A4641494C206F6E20474554440D0A21
:1004500000000900F5520DE0F6CF7CF0F7CF7DF0FB
:10046000F5509EA8FED7AD6E7CC0F6FF7DC0F7FFAD
:10047000F0D712007C39700B006ED89000361F0E3A
:100480006F1400106F6E6ECF00F0003A0030070B53
:100490007C5DF9E11200C00E70140409706E3F0E0D
:1004A0007014706EF80E71140209716EC70E71141B
:1004B0002809716E719C718EF80E72140509726EA6
:1004C000729CFFEF02F07DC084F07CC083F0825309
:1004D00052E083C0E9FF84C0EAFF7EC0EFFF835192
:1004E000D8B48407830783C0E9FF84C0EAFF7FC0D4
:1004F000EFFF8351D8B48407830783C0E9FF84C02A
:10050000EAFF8051030BEF6E83C0E9FF84C0EAFF6E
:1005100080C000F0003600360036F80E001600509D
:10052000E00BEF10EF6E83C0E9FF84C0EAFFEF50ED
:100530000809EF6E8351D8B48407830783C0E9FFAD
:1005400084C0EAFF80C000F0003A0032070E0016B7
:100550000050070BEF6E83C0E9FF84C0EAFF81C043
:1005600000F0003600360036F80E00160050F80B8A
:10057000EF10EF6E3FD083C0E9FF84C0EAFFEF6A5F
:100580008351D8B48407830783C0E9FF84C0EAFF9E
:10059000EF6A8351D8B48407830783C0E9FF84C01E
:1005A000EAFF7EC000F0003A0036E00E0016005070
:1005B000E00BEF6E8351D8B48407830783C0E9FF53
:1005C00084C0EAFF7EC000F00032003200321F0E0D
:1005D000001600501F0BEF6E83C0E9FF84C0EAFFD6
:1005E0007FC000F0003A0036E00E00160050E00B2D
:1005F000EF10EF6E1200040E7C6F3CDF4CD7606A88
:100600009F0E6014606E608460CF50FF739A739881
:10061000739E739C0F0E7D6F1B0E7C6F816B806BC6
:100620007F6B7E6B010E826F4EDF0F0E7D6F030EB0
:100630007C6F816B806B7F6B7E6B010E826F43DF03
:100640000F0E7D6F070E7C6F816B806B7F6B7E6BF7
:10065000010E826F38DF0F0E7D6F1F0E7C6F816B76
:10066000806B7F6B7E6B010E826F2DDF0F0E7D6FB7
:100670000B0E7C6F816B806B7F6B7E6B010E826FCC
:1006800022DF0F0E7D6F7C6F816B806B7F6B7E6BCB
:10069000010E826F18DF0F0E7D6F130E7C6F816B62
:1006A000806B7F6B7E6B010E826F0DDF0F0E7D6F97
:1006B000170E7C6F816B806B7F6B7E6B010E826F80
:1006C00002DF9350FB0B0809936E7C6BD3DE97EF30
:1006D0000AF0EA6A900EE96EEF500DE0060E016E28
:1006E000006A002EFED7012EFBD77B0E006E002E77
:1006F000FED7EF2EF3D7120092B102D0899601D027
:100700008986929692B302D0899801D0898892986E
:1007100092B502D08A9E01D08A8E939E92B702D063
:100720008A9C01D08A8C939C99EF03F091C092F03F
:10073000E3D7100E006E002EFED700008B82100E45
:10074000006E002EFED700008B9212008B90010EDF
:10075000906FBFDF8E5302E18B9001D08B80200E13
:10076000006E002EFED700D00000200E006E002E7E
:10077000FED700D000008B928F39906F0F0E90172C
:1007800090C091F0D3DF8F510F0B906F916FCEDF40
:1007900012008B908B92C80E906F9BDF010E7C6FC6
:1007A0007C51030808E3030E916FC0DF0A0E906FBF
:1007B00090DF7C2BF5D7020E916FB8DF7C6B7C51FC
:1007C000030809E3036A7C5178DC7D6F8E6B8F6FC1
:1007D000BDDF7C2BF4D799EF0AF00900F6CF81F04A
:1007E000F7CF82F0F5509EA8FED7AD6E81C0F6FF20
:1007F00082C0F7FF802FF1D712007EBF10D00F0EFE
:10080000006E7D3900160A0E005C03E2300E0026F1
:1008100002D07E51002600509EA8FED7AD6E0F0E6E
:100820007D170A0E7D5D02E2300E02D07E9F7E5162
:100830007D277D519EA8FED7AD6E12008E0E006EF4
:100840007DC001F07CC002F0036A015209E102C0E0
:1008500001F0026A080E005E015202E1006A08D04F
:10086000D89001BE04D0023601360006F9D7019EA9
:1008700012008951D8B471D0006E8D51D8B46DD0AA
:10088000002604E3810E002668E204D07F0E005E9D
:1008900064E363E08AC091F08E51911B8A8F8E8F42
:1008A0008C519003F4CF93F08B518F03F4CF03F06E
:1008B000F3CF92F09003F3509327F4509223000E5D
:1008C00003228C518F03F3509327F4509223000E90
:1008D000026A032202228A519003F3509227F450B5
:1008E0000322000E02228A518F03F3500326F45094
:1008F0000222000E016A01228C518E03F3509227CE
:10090000F4500322000E022201228B518E03F35079
:100910000326F4500222000E01228A518E03F35066
:100920000226F4500122002A01BE05D09237033678
:10093000023601360006000E92AF0AD0032A0222C8
:100940000122015005E1025003E1035001E1002AB8
:1009500091BF018E91AF019E04D0006A016A026AC4
:10096000036A1200800ED8B2851B8A6B8B6B81C024
:1009700089F08551891B8051D8B4DCD0886F006E16
:100980008451D8B4E0D0885FD8B481D03DE385C02D
:100990008EF08E8F86C08DF087C08CF08B6BD890D8
:1009A0008E338D338C338B33882FF8D789AF03D0B8
:1009B0008A81DDD08A9188918A89EA6A830EE96EFC
:1009C000E9D08A9989BF0AD088A113D08E338D339C
:1009D0008C338B33002AD8B4C5D00BD08EBF0CD04B
:1009E000D8908B378C378D378E370006D8B4BAD075
:1009F000F5D78A8D6BD08A9D81C089F081AF02D0F6
:100A00008E8FA9D08E9FA7D084C088F084C000F0BC
:100A10008051885F81C08EF08E8F82C08DF083C040
:100A20008CF08B6BD8908E338D338C338B33882F37
:100A3000F8D789AF03D08A839AD08A9388918A8B1A
:100A4000EA6A870EE96EA6D08A9B89BF0AD088A180
:100A500013D08E338D338C338B33002AD8B482D0AD
:100A60000BD08EBF0CD0D8908B378C378D378E370C
:100A70000006D8B477D0F5D78A8F28D08A9F85C052
:100A800089F085AF02D08E8F66D08E9F64D085C0EE
:100A90008EF08E8F86C08DF087C08CF089AF04D029
:100AA0008E9F8A8564D08A958B6B8891EA6A830EC3
:100AB000E96E70D089BF1CD081C089F088A106D0B2
:100AC0008E338D338C338B33002A4CE08BAF0BD0BD
:100AD0008C2B09E18D2B07E18E2B05E18E338D33B5
:100AE0008C33002A3FE08ABD86D78ABFC7D71CD087
:100AF000800E8E1B8EAF04D03AD085C089F00AD00C
:100B000081C089F08E5306E18D5304E18C5302E1DC
:100B1000006A21D08EBF08D0D8908B378C378D37A4
:100B20008E37002EF7D71ED089AF02D08E8F13D00C
:100B30008E9F11D084C000F085C08EF086C08DF0ED
:100B400087C08CF008D080C000F081C08EF082C0D9
:100B50008DF083C08CF08EC001F08DC002F08CC08F
:100B600003F034D0006A016A026A036A2FD08B6BEB
:100B70008C1F8D1F8E1F8B1F8B2B05E18C2B03E190
:100B80008D2B01E18E2B8AB115D78AB356D78AB542
:100B90008AD7B3D7EF508C2705E38D2B03E18E2B3B
:100BA000D8B48881ED52EF508D2703E38E2BD8B453
:100BB0008881ED52EF50EFBE01D0800A8E27D8B069
:100BC00088818AB9FED68ABB3FD774D71200010E3E
:100BD0008B5DFC0F0EE2040F03EF06F0800E8C6FAE
:100BE00008D0C00E8C6F05D0940E8C6F02D0D40E3E
:100BF0008C6F010E8A5D8C278C5180098D6F8E6BF6
:100C00008F6FA4DD1200E824F76AF736210FF66E25
:100C10000C0EF7220A00F550FA6E0800F550F96E36
:100C2000DC0BE20BE80BEE0B89510C0A05E0060A1F
:100C30000BE0020A0FE013D08E6B010E8F6F86DD82
:100C4000020E906F46DD10D0010E8A6F020E8B6F80
:100C5000BEDF0AD08E6B100E8F6F78DD05D0010ECF
:100C60008E6F89C08FF072DD12000900F5520CE022
:100C7000F6CF7CF0F7CF7DF0F5CF89F0D5DF7CC0E3
:100C8000F6FF7DC0F7FFF1D712008951B608896FD2
:100C9000036A8AC08DF08A8FD8908A338B338C3365
:100CA0000332023201320032892FF6D78DAF0BD0DA
:100CB000001E011E021E031E002AD8B4012AD8B449
:100CC000022AD8B4032A1200D8B203D0EA6A920EDC
:100CD000E96E006A016A026A036A926B936B946B15
:100CE000956B915190118F118E112CE0200E966F03
:100CF000D8908A378B378C378D3792379337943724
:100D000095379151955D08E19051945D05E18F51C2
:100D1000935D02E18E51925D0FE38E51925F8F5190
:100D2000D8A08F3D935F9051D8A0903D945F915192
:100D3000D8A0913D955FD880003601360236033643
:100D4000962FD6D792C0EFFF93C0ECFF94C0ECFF74
:100D500095C0ECFF1200E950816F8051836F19E05C
:100D60007FC08CF07EC08BF07DC08AF07CC089F0A3
:100D7000906B8F6B200E8E6F820E8D6F7ADD03C0AD
:100D80007FF002C07EF001C07DF000C07CF0832FB8
:100D9000E7D77FC08CF07EC08BF07DC08AF07CC02E
:100DA00089F073DF03C07FF002C07EF001C07DF0E8
:100DB00000C07CF07FAF0DD08107818B7C1F7D1F31
:100DC0007E1F7F1F7C2BD8B47D2BD8B47E2BD8B44C
:100DD0007F2B3B0E886F9A0E876FCA0E866F856BCE
:100DE0000A0E836F8051D8B4812BD882EA6A7C0EB8
:100DF000E96E7FC08DF07EC08CF07DC08BF07CC032
:100E00008AF088C091F087C090F086C08FF085C0CE
:100E10008EF05ADF015000520FE18029835D0CE013
:100E200081510CE00F0B835D01E037E281BF35D0CB
:100E300081BD04D0200E2DD0200E811781AB0CD0A7
:100E4000819B8051D8A481070050816F2D0E896F3E
:100E5000EBDE8151006E816B8051835D0AE10050B1
:100E6000816F2E0E896FE0DE8151006E200E81179A
:100E7000000E300E81AB0DD0819B8051D8A481072C
:100E80000050816F2D0E896FCFDE8151006E816B16
:100E9000300E002600C089F0C7DED89288C08DF0E1
:100EA00087C08CF086C08BF085C08AF0916B906B08
:100EB0008F6B0A0E8E6F08DF03C088F002C087F0C8
:100EC00001C086F000C085F0832F8FD712008351B8
:100ED000016A825D03E282C000F00CD0006A080E55
:100EE000846F823700368351005CD8B0006E0136C3
:100EF000842FF7D7120001507CC082F0640E836FFC
:100F0000E6DF00C07CF00150300E07E17DA30CD07D
:100F10007DB70AD07DB9200E03D07D977D997D8164
:100F2000012601C089F080DE7CC082F00A0E836F4A
:100F3000CEDF00C07CF00150300E06E17DB708D056
:100F40007DA106D07DB9200E012601C089F06CDE9E
:100F5000300E7C277CC089F067DE12007DC084F0F3
:100F60008151841B84AF05D0D894D8907DBFD880A0
:100F70002FD07DC084F080C085F07C51855F06E075
:100F800084AF26D0D850010AD86E22D081C085F017
:100F90007D51855F06E084AF1BD0D850010AD86E22
:100FA00017D082C085F07E51855F06E084AF10D0F7
:100FB000D850010AD86E0CD083C085F07F51855F70
:100FC00006E084AF05D0D850010AD86E01D0D89081
:100FD00012000900F6CF7DF0F7CF7EF0F5CF89F053
:100FE00023DE7DC0F6FF7EC0F7FF7C2FF2D7120014
:100FF0008E6B8D6B8C6B8B6B89C090F088C08FF083
:101000008A53D8B489D08FC0E9FF90C0EAFF8E6BB5
:101010008D6B8C6BEFCF8BF08F51D8B490078F070F
:101020008FC0E9FF90C0EAFFEF50936B926B916F16
:10103000006A00508B1391518C1392518D13935170
:101040008E138F51D8B490078F078FC0E9FF90C0DF
:10105000EAFFEF50946B936B926B916F030E9117B5
:10106000926B936B946B006A016A00508B13015072
:101070008C1391518D1392518E138FC0E9FF90C044
:10108000EAFFEF50946B936B926B916FE00E9117A8
:10109000926B936B946B006A9135016E9235026E80
:1010A0009335036E013602360336013602360336B7
:1010B000013602360336013602360336E00E0116DB
:1010C00000508B1301508C1302508D1303508E135C
:1010D0008F51D8B490078F078FC0E9FF90C0EAFF07
:1010E000EF50926B916F006A016A9135026E9235F2
:1010F000036E0236033602360336023603360236F4
:101100000336E00E021600508B1301508C13025070
:101110008D1303508E1353D0020E8F5F000E905B21
:101120008FC0E9FF90C0EAFFEF50946B936B926B16
:10113000916FE00E9117926B936B946B94318E6F5D
:1011400093318D6F92318C6F91318B6F8E338D33E4
:101150008C338B338E338D338C338B338E338D3393
:101160008C338B338E338D338C338B33070E8E174A
:101170008F51D8B490078F078FC0E9FF90C0EAFF66
:10118000EF50946B936B926B916F9135006E92352B
:10119000016E9335026E9435036E003601360236C9
:1011A00003360036013602360336F80E00160050BC
:1011B0008B1301508C1302508D1303508E138BC070
:1011C00000F08CC001F08DC002F08EC003F032EF51
:1011D00010F0E950816F8051836F1AE07FC08CF06E
:1011E0007EC08BF07DC08AF07CC089F0906B8F6BE5
:1011F000200E8E6F820E8D6F39EC04F003C07FF0ED
:1012000002C07EF001C07DF000C07CF0832FE6D7E5
:101210007FC08CF07EC08BF07DC08AF07CC089F0EE
:1012200034DD03C07FF002C07EF001C07DF000C05D
:101230007CF07FAF0DD08107818B7C1F7D1F7E1FCF
:101240007F1F7C2BD8B47D2BD8B47E2BD8B47F2BBA
:101250003B0E886F9A0E876FCA0E866F856B0A0EDB
:10126000836F8051D8B4812BD882EA6A7C0EE96EF4
:101270007FC08DF07EC08CF07DC08BF07CC08AF08A
:1012800088C091F087C090F086C08FF085C08EF046
:101290001BDD015000520FE18029835D0CE081517C
:1012A0000CE00F0B835D01E03BE281BF39D081BDD3
:1012B00004D0200E30D0200E811781AB0DD0819B41
:1012C0008051D8A481070050816F2D0E9EA8FED7B3
:1012D000AD6E8151006E816B8051835D0BE10050DA
:1012E000816F2E0E9EA8FED7AD6E8151006E200E2E
:1012F0008117000E300E81AB0ED0819B8051D8A497
:1013000081070050816F2D0E9EA8FED7AD6E8151D2
:10131000006E816B300E002600509EA8FED7AD6E89
:10132000D89288C08DF087C08CF086C08BF085C0C5
:101330008AF0916B906B8F6B0A0E8E6FC5DC03C0C9
:1013400088F002C087F001C086F000C085F0832FCE
:101350008BD71200015080C082F0640E836FB7DD1E
:1013600000C080F00150300E07E181A30DD081B79D
:101370000BD081B9200E03D08197819981810126FC
:1013800001509EA8FED7AD6E80C082F00A0E836F1A
:101390009EDD00C080F00150300E06E181B709D01B
:1013A00081A107D081B9200E012601509EA8FED749
:1013B000AD6E300E802780519EA8FED7AD6E120014
:1013C000E950826F3B0E896F9A0E886FCA0E876F45
:1013D000866B0A0E846FD882EA6A7E0EE96E81C03F
:1013E0008DF080C08CF07FC08BF07EC08AF089C009
:1013F00091F088C090F087C08FF086C08EF064DCDA
:10140000015000520FE18451010A0CE082510BE0BF
:101410000F0B845D01E00DE282BF0BD082BD03D0D3
:10142000200E02D0826B300E002600509EA8FED700
:10143000AD6ED89289C08DF088C08CF087C08BF0DB
:1014400086C08AF0916B906B8F6B0A0E8E6F3CDCBE
:1014500003C089F002C088F001C087F000C086F0A8
:10146000842FB9D7BAEF11F0F86AD09E078EB886EC
:10147000080EAF6E020EB06EA60EAC6E900EAB6E86
:10148000196A2A6AC150C00B0F09C16E2C6A2D6AF5
:101490002E6A2F6A306A316A326A336A346A356A70
:1014A000366A376A5B6A5A6A596A180E586E5C90D7
:1014B0005C92080E5D6E030E5E6E5F6A5F500708F9
:1014C00012E3036A5F50500FE96E000E0320EA6ECC
:1014D000EF6A036A5F50470FE96E000E0320EA6E61
:1014E000EF6A5F2AEBD7320EF66E010EF76E29EC2B
:1014F00002F0000E0609CA6EF90ECB6EF292F28867
:10150000000E946EF19AF090F0868B948B940C0EF2
:10151000BD6EC00EF212C050C00B0509C06EC09E59
:10152000C280C150C00B0C09C16EFBEF02F0C9EFC5
:1015300003F0480EF66E010EF76E29EC02F0326AE7
:101540001C0E306E280E316E320E336E346E010E6C
:10155000366E560EF66E010EF76E170E806FEDECBE
:1015600003F02BC07DF0570E7E6FFDEC03F0036A95
:1015700019501A0FE96E000E0320EA6EEFCF7CF0CF
:10158000720EF66E010EF76E1D0E806FEDEC03F01D
:101590007CC07DF0570E7E6FFDEC03F0000E016EF7
:1015A000C250C30B0110C26E140E906F69EC03F0B1
:1015B000C282C2B2FED7C4CF2CF03250F60FD8B0E0
:1015C000DFEF0FF00A0F5CEF12F0080E016EC25051
:1015D000C30B0110C26E140E906F69EC03F0C2824F
:1015E000C2B2FED7C4CF2EF07D6B2EC07CF01EECB5
:1015F00004F09D0E8C6F2F0E8B6F160E8A6F7B0E74
:10160000896F03C090F002C08FF001C08EF000C05F
:101610008DF039EC04F003C07FF002C07EF001C011
:101620007DF000C07CF0D89203C083F002C082F04D
:1016300001C081F000C080F00A0E876F850E866FB2
:10164000080E856F7A0E846FB2EC04F003C03BF095
:1016500002C03AF001C039F000C038F0040E016E4B
:10166000C250C30B0110C26E140E906F69EC03F0F0
:10167000C282C2B2FED7C4CF2DF07D6B2DC07CF0EC
:101680001EEC04F09D0E8C6F2F0E8B6F160E8A6F62
:101690007B0E896F03C090F002C08FF001C08EF006
:1016A00000C08DF039EC04F003C07FF002C07EF082
:1016B00001C07DF000C07CF0D89203C083F002C06E
:1016C00082F001C081F000C080F00A0E876F850EA5
:1016D000866F080E856F7A0E846FB2EC04F003C03B
:1016E0003FF002C03EF001C03DF000C03CF0020EF1
:1016F0008A6F010E8B6FE7EC05F0940EF66E010E0B
:10170000F76E35EC06F0010E8A6F8B6FE7EC05F093
:10171000540E896F14EC06F0020EE96E77C07FF06C
:1017200076C07EF075C07DF074C07CF0010E806FD5
:10173000ABEC06F0080E8A6F010E8B6FE7EC05F03C
:101740009C0EF66E010EF76E35EC06F0070E8A6FF2
:10175000010E8B6FE7EC05F0420E896F14EC06F07A
:10176000020EE96E3BC07FF03AC07EF039C07DF0DA
:1017700038C07CF0010E806FABEC06F0020E8A6F71
:101780008B6FE7EC05F0A20EF66E010EF76E35ECEE
:1017900006F0010E8A6F020E8B6FE7EC05F04C0E1F
:1017A000896F14EC06F03A0E896F14EC06F030C025
:1017B0007CF01B0E7D6F7BEC07F0070E8A6F020E2C
:1017C0008B6FE7EC05F0AA0EF66E010EF76E35ECA6
:1017D00006F0060E8A6F020E8B6FE7EC05F0480EDE
:1017E000896F14EC06F03A0E896F14EC06F031C0E4
:1017F0007CF01B0E7D6F7BEC07F00E0E8A6F020EE5
:101800008B6FE7EC05F0B00EF66E010EF76E35EC5F
:1018100006F00C0E8A6F020E8B6FE7EC05F0500E8F
:10182000896F14EC06F03A0E896F14EC06F02FC0A5
:101830007CF01B0E7D6F7BEC07F08A9A939A8B9657
:101840008B983BC07FF03AC07EF039C07DF038C045
:101850007CF0660E836F826F3E0E816F820E806F0A
:10186000AEEC07F003E38A9A939A8B88660E7F6F3B
:101870007E6F4E0E7D6F820E7C6F3BC083F03AC050
:1018800082F039C081F038C080F0AEEC07F003E39D
:101890008A8A939A8B982F50640802E2640E2F6E06
:1018A0007D6B30C07CF01EEC04F077C07FF076C01A
:1018B0007EF075C07DF074C07CF003C083F002C080
:1018C00082F001C081F000C080F0AEEC07F016E3BA
:1018D0007BC07FF07AC07EF079C07DF078C07CF06C
:1018E000836B826B816B800E806FAEEC07F002E33E
:1018F000320EBE6E010E2F6E2FC0BEFF7D6B31C04B
:101900007CF01EEC04F003C07FF002C07EF001C04A
:101910007DF000C07CF077C083F076C082F075C0A7
:1019200081F074C080F0AEEC07F004E3640E2F6E1B
:101930002FC0BEFF7D6B30C07CF01EEC04F003C0F6
:101940007FF002C07EF001C07DF000C07CF077C067
:1019500083F076C082F075C081F074C080F0AEEC88
:1019600007F01CE37D6B31C07CF01EEC04F077C007
:101970007FF076C07EF075C07DF074C07CF003C04F
:1019800083F002C082F001C081F000C080F0AEECB4
:1019900007F004E3080E2F6E2FC0BEFF10D3010E18
:1019A0008A6F8B6FE7EC05F0B40EF66E010EF76EE2
:1019B00035EC06F0040E8A6F020E8B6FE7EC05F033
:1019C000C60EF66E010EF76E35EC06F0010E8A6F4C
:1019D000020E8B6FE7EC05F0CE0EF66E010EF76E81
:1019E000030E7C6FE9EC07F02CC07CF01B0E7D6FC2
:1019F0007BEC07F00A0E8A6F020E8B6FE7EC05F0A6
:101A0000D40EF66E010EF76E35EC06F00A0E8A6FF4
:101A1000020E8B6FE7EC05F04C0E896F14EC06F0AC
:101A20003A0E896F14EC06F030C07CF01B0E7D6F0F
:101A30007BEC07F0C4D2010E8A6F8B6FE7EC05F0E8
:101A4000DE0EF66E010EF76E35EC06F0040E8A6FB0
:101A5000020E8B6FE7EC05F0F00EF66E010EF76EDE
:101A600035EC06F0010E8A6F020E8B6FE7EC05F085
:101A7000F80EF66E010EF76E030E7C6FE9EC07F0C0
:101A80002CC07CF01B0E7D6F7BEC07F00C0E8A6F78
:101A9000020E8B6FE7EC05F0FE0EF66E010EF76E90
:101AA00035EC06F00A0E8A6F020E8B6FE7EC05F03C
:101AB000480E896F14EC06F03A0E896F14EC06F0AC
:101AC00031C07CF01B0E7D6F7BEC07F078D2000EEE
:101AD000016EC250C30B0110C26E140E906F69EC00
:101AE00003F0C282C2B2FED7C4CF2CF0010E8A6FBF
:101AF0008B6FE7EC05F0040EF66E020EF76E35EC18
:101B000006F0040E8A6F020E8B6FE7EC05F0160EDE
:101B1000F66E020EF76E35EC06F0010E8A6F020EBD
:101B20008B6FE7EC05F01A0EF66E020EF76E030EE1
:101B30007C6FE9EC07F02CC07CF01B0E7D6F7BEC1A
:101B400007F00B0E8A6F020E8B6FE7EC05F0200E8C
:101B5000F66E020EF76E35EC06F0080E8A6F020E76
:101B60008B6FE7EC05F0260EF66E020EF76E030E95
:101B70007C6FE9EC07F033C07CF01B0E7D6F7BECD3
:101B800007F033C0BEFF8A9A939A19D2010E8A6F6A
:101B90008B6FE7EC05F02C0EF66E020EF76E35EC4F
:101BA00006F0040E8A6F020E8B6FE7EC05F03E0E16
:101BB000F66E020EF76E35EC06F0010E8A6F020E1D
:101BC0008B6FE7EC05F0420EF66E020EF76E030E19
:101BD0007C6FE9EC07F02CC07CF01B0E7D6F7BEC7A
:101BE00007F00B0E8A6F020E8B6FE7EC05F0480EC4
:101BF000F66E020EF76E35EC06F0080E8A6F020ED6
:101C00008B6FE7EC05F04E0EF66E020EF76E030ECC
:101C10007C6FE9EC07F034C07CF01B0E7D6F7BEC31
:101C200007F0CDD12C5205E02C503B0802E3010E09
:101C3000356E2C503B0805E22C50770802E3020E6B
:101C4000356E2C50780802E2030E356E010E8A6F55
:101C50008B6FE7EC05F0540EF66E020EF76E35EC66
:101C600006F0050E8A6F020E8B6FE7EC05F0660E2C
:101C7000F66E020EF76E35EC06F0010E8A6F020E5C
:101C80008B6FE7EC05F06A0EF66E020EF76E040E2F
:101C90007C6FE9EC07F035C07CF01B0E7D6F7BECB0
:101CA00007F00F0E8A6F020E8B6FE7EC05F0720ED5
:101CB000F66E020EF76E35EC06F0080E8A6F020E15
:101CC0008B6FE7EC05F0760EF66E020EF76E070EE0
:101CD0007C6FE9EC07F036C07CF01B0E7D6F7BEC6F
:101CE00007F06DD1030E8A6F010E8B6FE7EC05F0E4
:101CF000800EF66E020EF76E35EC06F0010E8A6F5E
:101D00008B6FE7EC05F0540E896F14EC06F03A0E79
:101D1000896F14EC06F0020EE96E63C07FF062C0BA
:101D20007EF061C07DF060C07CF0010E806FABEC96
:101D300006F00A0E8A6F010E8B6FE7EC05F0860E37
:101D4000F66E020EF76E35EC06F0080E8A6F010E85
:101D50008B6FE7EC05F0500E896F14EC06F03A0E2D
:101D6000896F14EC06F0020EE96E67C07FF066C062
:101D70007EF065C07DF064C07CF0010E806FABEC3E
:101D800006F0030E8A6F020E8B6FE7EC05F08C0EE7
:101D9000F66E020EF76E35EC06F0010E8A6F020E3B
:101DA0008B6FE7EC05F0480E896F14EC06F03A0EE5
:101DB000896F14EC06F0020EE96E6BC07FF06AC00A
:101DC0007EF069C07DF068C07CF0010E806FABECE6
:101DD00006F0080E8A6F020E8B6FE7EC05F0920E8C
:101DE000F66E020EF76E35EC06F0E9D0070E8A6F3C
:101DF000010E8B6FE7EC05F09C0EF66E020EF76E8F
:101E000035EC06F0010E8A6F8B6FE7EC05F0A20E41
:101E1000F66E020EF76E060E7C6FE9EC07F0020E0E
:101E2000E96E6FC07FF06EC07EF06DC07DF06CC05B
:101E30007CF0010E806FABEC06F00C0E8A6F010E89
:101E40008B6FE7EC05F0300E896F14EC06F0430E53
:101E5000896F14EC06F00E0E8A6F010E8B6FE7ECA3
:101E600005F0AE0EF66E020EF76E35EC06F0070EBC
:101E70008A6F020E8B6FE7EC05F0B20EF66E020E63
:101E8000F76E35EC06F0010E8A6F020E8B6FE7ECF1
:101E900005F0B80EF66E020EF76E060E7C6FE9ECDA
:101EA00007F0020EE96E73C07FF072C07EF071C061
:101EB0007DF070C07CF0010E806FABEC06F00C0E74
:101EC0008A6F020E8B6FE7EC05F0C40EF66E020E01
:101ED000F76E35EC06F00E0E8A6F020E8B6FE7EC94
:101EE00005F0CA0EF66E020EF76E35EC06F067D0FE
:101EF000070E8A6F010E8B6FE7EC05F0CE0EF66EC3
:101F0000020EF76E35EC06F0010E8A6F8B6FE7EC70
:101F100005F0D80EF66E020EF76E060E7C6FE9EC39
:101F200007F0020EE96E77C07FF076C07EF075C0D4
:101F30007DF074C07CF0010E806FABEC06F0010EFA
:101F40008A6F020E8B6FE7EC05F0E40EF66E020E60
:101F5000F76E35EC06F033D0070E8A6F010E8B6FEB
:101F6000E7EC05F0F60EF66E020EF76E35EC06F0B5
:101F7000010E8A6F8B6FE7EC05F0000EF66E030E14
:101F8000F76E060E7C6FE9EC07F0020EE96E7BC07F
:101F90007FF07AC07EF079C07DF078C07CF0010ED1
:101FA000806FABEC06F0010E8A6F020E8B6FE7ECD0
:101FB00005F00C0EF66E030EF76E35EC06F060BE03
:101FC00004D00F0150AF70D200017D6B470E7C6FC3
:101FD00060AE17D0F10E6F146F6E4298A4904290CD
:101FE00074BE4280749E60A40BD0000E60B0010EDF
:101FF000070B006ED8900036F10E42140010426EAE
:102000001CD00F0150AF15D0F10E6F140A096F6E7E
:102010004288A492429074BC4280749C5051070B39
:10202000070B006ED8900036F10E42140010426E7D
:1020300003D0000E016E4BD0000165500F0B4F6EA8
:10204000429A65BC428A429C62B6428C000E42BCF7
:10205000010E816F0F0E896F640E886F81C08AF048
:10206000F8EF07F003C046F002C045F001C044F0AD
:1020700000C043F00F0E806F660E7F6F7E6B4F5077
:102080007E5D14E27FC0E9FF80C0EAFFEFCF83F0FE
:102090007DC0EAFF7CC0E9FF83C0EFFF7C2BD8B492
:1020A0007D2B7F2BD8B4802B7E2BE9D7F10E6F14BC
:1020B0006F6E429EA4BE428EA49E42A804D00F0121
:1020C000509F03D00001609E0F01010E016E01526E
:1020D000D8B4E2D1435015082AE1445228E14552D0
:1020E00026E1465224E147C078F048C079F049C063
:1020F0007AF04AC07BF01E0EF66E030EF76E150ED8
:102100000001806FEDEC03F0890EE96E7BC07FF07B
:102110007AC07EF079C07DF078C07CF0020E806FCE
:10212000E9EC08F0200E9EA8FED7AD6E0F014350DB
:1021300017084CE144524AE1455248E1465246E113
:1021400047C060F048C061F049C062F04AC063F027
:102150004BC064F04CC065F04DC066F04EC067F0F7
:10216000380EF66E030EF76E1B0E0001806FEDEC5D
:1021700003F0890EE96E63C07FF062C07EF061C03B
:102180007DF060C07CF0020E806FE9EC08F0200E5C
:102190009EA8FED7AD6E580EF66E030EF76E180EA3
:1021A000806FEDEC03F0890EE96E67C07FF066C0CA
:1021B0007EF065C07DF064C07CF0020E806FE9ECBB
:1021C00008F0200E9EA8FED7AD6E0F0143501908EF
:1021D0002AE1445228E1455226E1465224E147C013
:1021E00068F048C069F049C06AF04AC06BF0740EEC
:1021F000F66E030EF76E180E0001806FEDEC03F023
:10220000890EE96E6BC07FF06AC07EF069C07DF018
:1022100068C07CF0020E806FE9EC08F0200E9EA8EA
:10222000FED7AD6E0F0143501B084CE144524AE10A
:10223000455248E1465246E147C06CF048C06DF057
:1022400049C06EF04AC06FF04BC070F04CC071F0E6
:102250004DC072F04EC073F0900EF66E030EF76E26
:102260001B0E0001806FEDEC03F0890EE96E6FC06C
:102270007FF06EC07EF06DC07DF06CC07CF0020E11
:10228000806FE9EC08F0200E9EA8FED7AD6EB00E70
:10229000F66E030EF76E170E806FEDEC03F0890EED
:1022A000E96E73C07FF072C07EF071C07DF070C0C7
:1022B0007CF0020E806FE9EC08F0200E9EA8FED79D
:1022C000AD6E0F0143501D082AE1445228E14552EA
:1022D00026E1465224E147C074F048C075F049C079
:1022E00076F04AC077F0CC0EF66E030EF76E1D0E38
:1022F0000001806FEDEC03F0890EE96E77C07FF08E
:1023000076C07EF075C07DF074C07CF0020E806FE8
:10231000E9EC08F0200E9EA8FED7AD6E0F01000E6E
:1023200042B8010E00017C6F000E42B0010E7D6FBD
:10233000EE0EF66E030EF76E0C0E806FEDEC03F0F2
:102340007CC080F01B0E816FAAEC09F0FC0EF66ECB
:10235000030EF76E040E806FEDEC03F0410EE96E94
:1023600046C081F045C080F044C07FF043C07EF09D
:10237000E0EF09F0030EF66E040EF76E050E806FA7
:10238000EDEC03F04FC080F01B0E816FAAEC09F05A
:102390000A0EF66E040EF76E050E806FEDEC03F07C
:1023A0007DC080F01B0E816FAAEC09F0200E9EA864
:1023B000FED7AD6E42C000F04230070B7C6F000EBE
:1023C00042BA010E7D6F000E42BC010E7E6F000E00
:1023D00042BE010E7F6F140EF66E040EF76E050EF0
:1023E000806FEDEC03F07CC080F01B0E816FAAECD7
:1023F00009F01B0EF66E040EF76E050E806FEDEC05
:1024000003F07DC080F01B0E816FAAEC09F0220E54
:10241000F66E040EF76E050E806FEDEC03F07EC0D5
:1024200080F01B0E816FAAEC09F0290EF66E040EE7
:10243000F76E050E806FEDEC03F07FC080F01B0E91
:10244000816FAAEC09F0320EF66E040EF76E29ECDD
:1024500002F05F6A4F505F5C15E2036A5F50470FFE
:10246000E96E000E0320EA6EEFCF7CF07CC07DF0B9
:10247000370E7E6FFDEC03F0200E9EA8FED7AD6EEA
:102480005F2AE8D70D0E9EA8FED7AD6E0A0E9EA855
:10249000FED7AD6E08D00F01400EF66E040EF76E3B
:1024A000000129EC02F00F01C80E0001906F69ECE9
:1024B00003F0A9EF0AF00300E824F76AF736D30F18
:1024C000F66E240EF7220A00F550FA6E0800F55059
:1024D000F96ECA159E19361ACE1A8C1B241CE41CE0
:0624E000EC1DF01E581F68
:020000040030CA
:0E00000000C21E1E008691000FC00FE00F40D0
:00000001FF
;PIC18F2480
;CRC=BB18  CREATED="27-Thg11-17 10:21"
